:100000000C9450000C9462000C9462000C946200FA
:100010000C9462000C9462000C9462000C946200D8
:100020000C9462000C9462000C9462000C946200C8
:100030000C948E000C9462000C9462000C9462008C
:100040000C9462000C9462000C9462000C946200A8
:100050000C9462000C9462000C9462000C94620098
:100060000C9462000C9462000C9462000C94620088
:100070000C9462000C9462000C9462000C94620078
:100080000C9462000C9462000C9462000C94620068
:100090000C9462000C9462000C9462000C94620058
:1000A00011241FBECFEFCDBFDFE3DEBF28E2A0E00B
:1000B000B8E201C01D92A330B207E1F70E947D00B3
:1000C0000C94EE000C94000088ED84BF83E08093D4
:1000D00061000895E0EAF4E080E281838583089579
:1000E000E0E8FAE088E893E1848795878081816081
:1000F000808385818160858308950E9464000E94C9
:100100006A000E9470007894809102288823E1F3AD
:100110001092022880E28093A704F6CF1F920F92DC
:100120000FB60F9211242F933F934F935F936F93CA
:100130007F938F939F93AF93BF93EF93FF934091E0
:100140000028509101289A013695279536952795D4
:1001500036952795A5ECB0E20E94DF009295829536
:100160008F7089279F70892768EE73E0869F9001C2
:10017000879F300D969F300D1124CA010196809300
:100180000028909301284217530719F481E08093C7
:100190000228E0E8FAE0868181608683FF91EF9192
:1001A000BF91AF919F918F917F916F915F914F918F
:1001B0003F912F910F900FBE0F901F901895A29F07
:1001C000B001B39FC001A39F700D811D1124911D2B
:1001D000B29F700D811D1124911D0895F894FFCFD9
:00000001FF
