S02B0000332E20372053656720416E7469676F737420616E6420437269746963616C2053656374696F6E2E7340
S11300000C9450000C946D000C946D000C946D00D5
S11300100C946D000C946D000C946D000C946D00A8
S11300200C946D000C946D000C946D000C946D0098
S11300300C9426010C946D000C946D000C946D00CE
S11300400C946D000C946D000C946D000C946D0078
S11300500C946D000C946D000C946D000C946D0068
S11300600C946D000C946D000C946D000C946D0058
S11300700C946D000C946D000C946D000C946D0048
S11300800C946D000C946D000C946D000C946D0038
S11300900C946D000C946D000C946D000C946D0028
S11300A011241FBECFEFCDBFDFE3DEBF18E2A0E017
S11300B0B8E2EBEAF3E002C005900D92A430B10778
S11300C0D9F728E2A4E0B8E201C01D92A830B20733
S11300D0E1F70E9418010C94CB010C9400008FE00E
S11300E08093A1048FEF8093400408950F931F938E
S11300F0CF93DF9300D000D0CDB7DEB79C01893118
S11301006CEF96072CF480E4898327EE33E014C067
S113011089519C4F873E934030F480E48983319524
S11301202195310909C0283E83E0380710F419826B
S113013003C0198227EE33E0C90164E670E00E942F
S11301409401FB01E656FC4B40814A830AE010E02F
S1130150B8010E949401FB01E656FC4B80818B831D
S1130160C901B8010E949401FC01E656FC4B808150
S11301708C8381E013C0282F30E0E1E0F0E0EC0F45
S1130180FD1FE20FF31F90819F33D9F4E1E0F0E00B
S1130190EC0FFD1FE20FF31F10828F5F833058F3C3
S11301A020E010C0822F90E0E1E0F0E0EC0FFD1FB2
S11301B0E80FF91F3081FC01E050F84D30832F5FC8
S11301C001C020E0243070F32496CDBFDEBFDF9160
S11301D0CF911F910F910895282F2370A0EAB4E0C6
S11301E08FE016968C931697E22FF0E0E050F84DCE
S11301F080818093440481E090E002C0880F991FBD
S11302002A95E2F715968C93089588ED84BF83E0D0
S1130210809361000895E0E8FAE088E893E1848738
S1130220958780818160808385818160858308953D
S11302300E9405010E940B010E946F007894809136
S11302400628909107280E947600F9CF1F920F92FA
S11302500FB60F9211242F933F934F935F936F9395
S11302607F938F939F93AF93BF93EF93FF934091AB
S11302700428509105284F5F5F4F40930428509302
S113028005289A01ADECBCEC0E94A80196958795CF
S1130290969587959C01220F331F220F331F820FDF
S11302A0931FE42FE81B9A013695279536952795D9
S11302B036952795A5ECB0E20E94A8019295829507
S11302C08F7089279F70892768EE73E0869F90015D
S11302D0879F300D969F300D11244217530749F420
S11302E0809106289091072801978093062890937F
S11302F00728E11103C0CA010E94EC00E0E8FAE01B
S1130300868181608683FF91EF91BF91AF919F9128
S11303108F917F916F915F914F913F912F910F90AA
S11303200FBE0F901F90189597FB072E16F400949C
S113033007D077FD09D00E94B70107FC05D03EF431
S1130340909581959F4F0895709561957F4F08957D
S1130350A29FB001B39FC001A39F700D811D112402
S1130360911DB29F700D811D1124911D0895AA1B2A
S1130370BB1B51E107C0AA1FBB1FA617B70710F08C
S1130380A61BB70B881F991F5A95A9F780959095BE
S10D0390BC01CD010895F894FFCFDD
S113039A3F065B4F666D7D277F67777C395E79718F
S10403AA400E
S10703ABFFFFFFFF4E
S9030000FC
