S02B0000322E20627574746F6E20636C69636B20616E6420646F75626C6520636C69636B20616E6420686F6CC8
S11300000C9450000C9462000C9462000C946200F6
S11300100C9462000C9462000C9462000C946200D4
S11300200C9462000C9462000C9462000C946200C4
S11300300C941B010C9462000C9462000C946200FA
S11300400C9462000C9462000C9462000C946200A4
S11300500C9462000C9462000C9462000C94620094
S11300600C9462000C9462000C9462000C94620084
S11300700C9462000C9462000C9462000C94620074
S11300800C9462000C9462000C9462000C94620064
S11300900C9462000C9462000C9462000C94620054
S11300A011241FBECFEFCDBFDFE3DEBF28E2A0E007
S11300B0B8E201C01D92AE30B207E1F70E94FF0022
S11300C00C9470010C940000E0EAF4E080E2818377
S11300D090E49283858386898860868B0895209135
S11300E00728309108282F5F3F4F2093072830932B
S11300F008288091052890910628009779F040916E
S11301000328509104288417950741F0481B590B84
S11301104035510518F481E080930A2880910B281A
S113012081110AC08091012890910228883C910590
S113013018F081E080930B2880910028813071F0C1
S113014028F08230F1F08330B1F108959091A80441
S113015096FD41C08F5F8093002808959091A80474
S113016096FD0BC091E0909309288F5F809300283F
S11301702093032830930428089581508093002805
S113018008959091A80496FF04C08F5F809300287F
S11301900895809101289091022801968093012866
S11301A09093022880910328909104288093052835
S11301B09093062808959091A80496FF09C0109280
S11301C009281092002810920128109202280895FC
S11301D0815080930028089588ED84BF83E0809344
S11301E061000895E0E8FAE088E893E18487958760
S11301F080818160808385818160858308950E94E8
S1130200EC000E94F2000E9464007894E9E0F8E2B5
S113021080818281882329F010920B2880E28093C8
S1130220A60480910A28882389F310920A2880E280
S11302308093A504EBCF1F920F920FB60F92112457
S11302402F933F934F935F936F937F938F939F93DA
S1130250AF93BF93EF93FF9340910C2850910D28D7
S11302609A01ADECBCEC0E94610196958795969538
S113027087959C01220F331F220F331F820F931F78
S11302809A012F5F3F4F20930C2830930D28481379
S113029002C00E946F00E0E8FAE0868181608683F4
S11302A0FF91EF91BF91AF919F918F917F916F914A
S11302B05F914F913F912F910F900FBE0F901F9020
S11302C01895A29FB001B39FC001A39F700D811D1B
S11302D01124911DB29F700D811D1124911D08954B
S10702E0F894FFCFBC
S9030000FC
